{
  "_format": "hh-sol-artifact-1",
  "contractName": "HederaAssetManagerContract",
  "sourceName": "contracts/HederaAssetManagerContract.sol",
  "abi": [
    {
      "inputs": [],
      "stateMutability": "nonpayable",
      "type": "constructor"
    },
    {
      "inputs": [
        {
          "internalType": "address",
          "name": "owner",
          "type": "address"
        }
      ],
      "name": "OwnableInvalidOwner",
      "type": "error"
    },
    {
      "inputs": [
        {
          "internalType": "address",
          "name": "account",
          "type": "address"
        }
      ],
      "name": "OwnableUnauthorizedAccount",
      "type": "error"
    },
    {
      "inputs": [],
      "name": "ReentrancyGuardReentrantCall",
      "type": "error"
    },
    {
      "anonymous": false,
      "inputs": [
        {
          "indexed": true,
          "internalType": "address",
          "name": "previousOwner",
          "type": "address"
        },
        {
          "indexed": true,
          "internalType": "address",
          "name": "newOwner",
          "type": "address"
        }
      ],
      "name": "OwnershipTransferred",
      "type": "event"
    },
    {
      "anonymous": false,
      "inputs": [
        {
          "indexed": true,
          "internalType": "address",
          "name": "token",
          "type": "address"
        },
        {
          "indexed": true,
          "internalType": "address",
          "name": "buyer",
          "type": "address"
        },
        {
          "indexed": false,
          "internalType": "uint256",
          "name": "assetTokenAmount",
          "type": "uint256"
        },
        {
          "indexed": false,
          "internalType": "uint256",
          "name": "totalPaidTinybar",
          "type": "uint256"
        }
      ],
      "name": "Purchased",
      "type": "event"
    },
    {
      "inputs": [],
      "name": "PRICE_PER_WHOLE",
      "outputs": [
        {
          "internalType": "uint256",
          "name": "",
          "type": "uint256"
        }
      ],
      "stateMutability": "view",
      "type": "function"
    },
    {
      "inputs": [
        {
          "internalType": "address",
          "name": "assetToken",
          "type": "address"
        },
        {
          "internalType": "uint64",
          "name": "assetTokenAmount",
          "type": "uint64"
        }
      ],
      "name": "buy_realty_fraction",
      "outputs": [],
      "stateMutability": "payable",
      "type": "function"
    },
    {
      "inputs": [],
      "name": "owner",
      "outputs": [
        {
          "internalType": "address",
          "name": "",
          "type": "address"
        }
      ],
      "stateMutability": "view",
      "type": "function"
    },
    {
      "inputs": [
        {
          "internalType": "uint256",
          "name": "wholeAmount",
          "type": "uint256"
        }
      ],
      "name": "quotePrice",
      "outputs": [
        {
          "internalType": "uint256",
          "name": "",
          "type": "uint256"
        }
      ],
      "stateMutability": "pure",
      "type": "function"
    },
    {
      "inputs": [],
      "name": "renounceOwnership",
      "outputs": [],
      "stateMutability": "nonpayable",
      "type": "function"
    },
    {
      "inputs": [
        {
          "internalType": "address",
          "name": "newOwner",
          "type": "address"
        }
      ],
      "name": "transferOwnership",
      "outputs": [],
      "stateMutability": "nonpayable",
      "type": "function"
    },
    {
      "inputs": [],
      "name": "withdrawHBAR",
      "outputs": [],
      "stateMutability": "nonpayable",
      "type": "function"
    },
    {
      "inputs": [
        {
          "internalType": "address",
          "name": "assetToken",
          "type": "address"
        }
      ],
      "name": "withdrawInventory",
      "outputs": [],
      "stateMutability": "nonpayable",
      "type": "function"
    },
    {
      "stateMutability": "payable",
      "type": "receive"
    }
  ],
  "bytecode": "0x608060405234801561000f575f80fd5b50338061003557604051631e4fbdf760e01b81525f600482015260240160405180910390fd5b61003e81610048565b5060018055610097565b5f80546001600160a01b038381166001600160a01b0319831681178455604051919092169283917f8be0079c531659141344cd1fd0a4f28419497f9722a3daafe3b4186f6b6457e09190a35050565b61087c806100a45f395ff3fe60806040526004361061007c575f3560e01c8063a74e16ed1161004c578063a74e16ed146100ef578063b04d904d1461011c578063ba2d90fb1461013b578063f2fde38b1461014f575f80fd5b806312ec75d7146100875780636bea7b521461009c578063715018a6146100b05780638da5cb5b146100c4575f80fd5b3661008357005b5f80fd5b61009a610095366004610741565b61016e565b005b3480156100a7575f80fd5b5061009a61046c565b3480156100bb575f80fd5b5061009a61051d565b3480156100cf575f80fd5b505f546040516001600160a01b0390911681526020015b60405180910390f35b3480156100fa575f80fd5b5061010e610109366004610782565b61052e565b6040519081526020016100e6565b348015610127575f80fd5b5061009a610136366004610799565b61054f565b348015610146575f80fd5b5061010e610628565b34801561015a575f80fd5b5061009a610169366004610799565b61063a565b610176610674565b6001600160a01b0382166101bb5760405162461bcd60e51b81526020600482015260076024820152660746f6b656e3d360cc1b60448201526064015b60405180910390fd5b5f8167ffffffffffffffff16116101ff5760405162461bcd60e51b81526020600482015260086024820152670616d6f756e743d360c41b60448201526064016101b2565b5f67ffffffffffffffff821661021a6305f5e10060646107cd565b61022491906107cd565b90508034146102755760405162461bcd60e51b815260206004820152600f60248201527f77726f6e6720484241522073656e74000000000000000000000000000000000060448201526064016101b2565b5f6102818360016107e4565b61028f906305f5e1006107e4565b6040516370a0823160e01b815230600482015267ffffffffffffffff91909116915081906001600160a01b038616906370a0823190602401602060405180830381865afa1580156102e2573d5f803e3d5ffd5b505050506040513d601f19601f820116820180604052508101906103069190610810565b10156103545760405162461bcd60e51b815260206004820152601660248201527f696e73756666696369656e7420696e76656e746f72790000000000000000000060448201526064016101b2565b60405163a9059cbb60e01b8152336004820152602481018290526001600160a01b0385169063a9059cbb906044016020604051808303815f875af115801561039e573d5f803e3d5ffd5b505050506040513d601f19601f820116820180604052508101906103c29190610827565b61040e5760405162461bcd60e51b815260206004820152600e60248201527f64656c69766572206661696c656400000000000000000000000000000000000060448201526064016101b2565b6040805167ffffffffffffffff8516815234602082015233916001600160a01b038716917fa326259ec721617acd3cb2a00bcbeac91eefe409880e49aa2bbf473ed648da49910160405180910390a3505061046860018055565b5050565b61047461069e565b61047c610674565b6040515f90339047908381818185875af1925050503d805f81146104bb576040519150601f19603f3d011682016040523d82523d5f602084013e6104c0565b606091505b50509050806105115760405162461bcd60e51b815260206004820152601460248201527f48424152207769746864726177206661696c656400000000000000000000000060448201526064016101b2565b5061051b60018055565b565b61052561069e565b61051b5f6106ca565b5f8161053f6305f5e10060646107cd565b61054991906107cd565b92915050565b61055761069e565b61055f610674565b60405163a9059cbb60e01b81523360048201526305f5e10060248201526001600160a01b0382169063a9059cbb906044016020604051808303815f875af11580156105ac573d5f803e3d5ffd5b505050506040513d601f19601f820116820180604052508101906105d09190610827565b61061c5760405162461bcd60e51b815260206004820152601560248201527f746f6b656e207769746864726177206661696c6564000000000000000000000060448201526064016101b2565b61062560018055565b50565b6106376305f5e10060646107cd565b81565b61064261069e565b6001600160a01b03811661066b57604051631e4fbdf760e01b81525f60048201526024016101b2565b610625816106ca565b60026001540361069757604051633ee5aeb560e01b815260040160405180910390fd5b6002600155565b5f546001600160a01b0316331461051b5760405163118cdaa760e01b81523360048201526024016101b2565b5f80546001600160a01b0383811673ffffffffffffffffffffffffffffffffffffffff19831681178455604051919092169283917f8be0079c531659141344cd1fd0a4f28419497f9722a3daafe3b4186f6b6457e09190a35050565b80356001600160a01b038116811461073c575f80fd5b919050565b5f8060408385031215610752575f80fd5b61075b83610726565b9150602083013567ffffffffffffffff81168114610777575f80fd5b809150509250929050565b5f60208284031215610792575f80fd5b5035919050565b5f602082840312156107a9575f80fd5b6107b282610726565b9392505050565b634e487b7160e01b5f52601160045260245ffd5b8082028115828204841417610549576105496107b9565b67ffffffffffffffff818116838216028082169190828114610808576108086107b9565b505092915050565b5f60208284031215610820575f80fd5b5051919050565b5f60208284031215610837575f80fd5b815180151581146107b2575f80fdfea26469706673582212209caa3b53b1627bff58716e4a4dff41bcbaeece14ccb1b335d5202584dc986a5564736f6c63430008140033",
  "linkReferences": {},
  "deployedLinkReferences": {}
}